:100000001CC036C059C134C033C032C0BCC030C0BF
:100010002FC02EC02DC02CC02BC02AC029C028C084
:1000200027C026C025C052C059C060C067C06EC07E
:1000300075C07CC083C08AC091C011241FBECFE5AB
:10004000D4E0DEBFCDBF10E0A0E6B0E0ECEAF6E021
:1000500002C005900D92A236B107D9F720E0A2E6C2
:10006000B0E001C01D92A437B207E1F70FD21CC364
:10007000C7CF8230910579F01CF4019739F01AC08E
:100080008330910569F0049781F014C0C29A90986A
:100090009198AD9813C0C298909A9198AD980EC05F
:1000A000C2989098919AAD9809C0C29890989198EA
:1000B000AD9A04C0C29A909A919AAD9A6A3071052D
:1000C00008F054C0FB01ED5EFF4F0994C49892986C
:1000D000AB98A998A898C598AC9A4FC0C49A929822
:1000E000AB98A99AA89AC59AAC9A47C0C498929816
:1000F000AB9AA998A898C59AAC983FC0C498929812
:10010000AB98A998A89AC59AAC9837C0C49A929807
:10011000AB98A99AA89AC598AC982FC0C498929AFF
:10012000AB98A998A89AC598AC9827C0C498929AF9
:10013000AB98A998A898C598AC981FC0C4989298F5
:10014000AB98A99AA89AC59AAC9A17C0C4989298E5
:10015000AB98A998A898C598AC980FC0C4989298E5
:10016000AB98A998A89AC598AC9807C0C49A929AD7
:10017000AB9AA99AA89AC59AAC98413311F4AA9857
:100180000895AA9A08951F920F920FB60F92112404
:100190002F933F934F935F936F937F938F939F938F
:1001A000AF93BF93CF93DF93EF93FF93809163005F
:1001B00081116FC08091600090916100019761F49E
:1001C00080916200811105C0979A81E0809362005E
:1001D00003C097981092620080916E0090916F001A
:1001E0008B33910534F4019690936F0080936E00E9
:1001F0004EC010926F0010926E008091700090912E
:1002000071008B33910534F40196909371008093C3
:10021000700029C0109271001092700080917200DD
:10022000909173008731910534F401969093730097
:100230008093720004C01092730010927200C091FB
:100240007200D09173006AE070E0CE0106D2709324
:100250006D0060936C006AE070E0CE01FED1909377
:100260006B0080936A00C0917000D09171006AE0C9
:1002700070E0CE01F2D170936900609368006AE08B
:1002800070E0CE01EAD190936700809366001DBCB8
:100290001CBCFF91EF91DF91CF91BF91AF919F91E6
:1002A0008F917F916F915F914F913F912F910F901F
:1002B0000FBE0F901F9018951F920F920FB60F92BE
:1002C00011242F933F934F935F936F937F938F935B
:1002D0009F93AF93BF93CF93DF93EF93FF938BB72E
:1002E0008F778BBF849B32C08091630081111AC0CD
:1002F00081E08093630081E090E0909365008093BB
:100300006400979A41E368E070E080E090E0B1DE3D
:100310002FEF89E698E1215080409040E1F700C03E
:10032000000092C080916400909165008330910537
:1003300034F40196909365008093640085C081E059
:1003400090E090936500809364007EC0809163008C
:10035000813009F068C0809164009091650081301F
:10036000910531F58091720090917300873191056C
:1003700034F40196909373008093720004C010923D
:10038000730010927200C0917200D09173006AE005
:1003900070E0CE0162D170936D0060936C006AE0F2
:1003A00070E0CE015AD190936B0080936A0034C004
:1003B0008230910531F580917000909171008B33FE
:1003C000910534F40196909371008093700004C0FD
:1003D0001092710010927000C0917000D091710065
:1003E0006AE070E0CE0139D17093690060936800D3
:1003F0006AE070E0CE0131D190936700809366008F
:100400000BC0039749F41092630081E090E0909351
:1004100065008093640097988FE39CE90197F1F75A
:1004200000C0000011C08091600090916100892B94
:1004300039F481E090E0909361008093600004C003
:1004400010926100109260009FEF20E782E09150CF
:1004500020408040E1F700C000008AB78F7B8ABF50
:100460008BB780688BBFFF91EF91DF91CF91BF91E8
:10047000AF919F918F917F916F915F914F913F913C
:100480002F910F900FBE0F901F90189587B3846324
:1004900087BB84B38F6384BB81B3876881BB8CE0E7
:1004A00085BF80E88BBF8ABF1FBC8EB584608EBDC0
:1004B00082E294EF9BBD8ABD1DBC1CBC80E189BF5C
:1004C000AA9A78948CC0979A809164009091650064
:1004D0000197C1F560916C0070916D0041E381E07E
:1004E00090E0C7DD8FE99FE00197F1F700C00000C1
:1004F00060916A0070916B0041E382E090E0B9DDA9
:100500008FE99FE00197F1F700C00000609168005B
:100510007091690040E383E090E0ABDD8FE99FE0FC
:100520000197F1F700C000006091660070916700CC
:1005300040E384E090E09DDD8FE99FE00197F1F7D3
:1005400000C0000080916400909165000297C1F5A1
:1005500060916C0070916D0040E381E090E089DD76
:100560008FE99FE00197F1F700C0000060916A00F9
:1005700070916B0040E382E090E07BDD8FE99FE0CB
:100580000197F1F700C00000609168007091690068
:1005900041E383E090E06DDD8FE99FE00197F1F7A3
:1005A00000C00000609166007091670041E384E044
:1005B00090E05FDD8FE99FE00197F1F700C0000058
:1005C0008091640090916500039749F41092630054
:1005D00081E090E09093650080936400979880910B
:1005E0006300813009F46FCF60916C0070916D00F1
:1005F00040E381E090E03DDD8FE99FE00197F1F776
:1006000000C0000060916A0070916B0040E382E0DE
:1006100090E02FDD8FE99FE00197F1F700C0000027
:10062000609168007091690040E383E090E021DD13
:100630008FE99FE00197F1F700C00000609166002C
:100640007091670040E384E090E013DD8FE99FE064
:100650000197F1F700C00000C2CF97FB072E16F4F8
:10066000009406D077FD08D00BD007FC05D03EF4EF
:10067000909581959F4F0895709561957F4F08954E
:10068000AA1BBB1B51E107C0AA1FBB1FA617B707B8
:1006900010F0A61BB70B881F991F5A95A9F78095D4
:0C06A0009095BC01CD010895F894FFCFA7
:0206AC0001004B
:00000001FF
